Component: ARM Compiler 5.06 update 5 (build 528) Tool: armlink [4d35e2]

==============================================================================

Section Cross References

    startup_stm32f103xb.o(RESET) refers to startup_stm32f103xb.o(STACK) for __initial_sp
    startup_stm32f103xb.o(RESET) refers to startup_stm32f103xb.o(.text) for Reset_Handler
    startup_stm32f103xb.o(RESET) refers to stm32f1xx_it.o(i.NMI_Handler) for NMI_Handler
    startup_stm32f103xb.o(RESET) refers to stm32f1xx_it.o(i.HardFault_Handler) for HardFault_Handler
    startup_stm32f103xb.o(RESET) refers to stm32f1xx_it.o(i.MemManage_Handler) for MemManage_Handler
    startup_stm32f103xb.o(RESET) refers to stm32f1xx_it.o(i.BusFault_Handler) for BusFault_Handler
    startup_stm32f103xb.o(RESET) refers to stm32f1xx_it.o(i.UsageFault_Handler) for UsageFault_Handler
    startup_stm32f103xb.o(RESET) refers to stm32f1xx_it.o(i.SVC_Handler) for SVC_Handler
    startup_stm32f103xb.o(RESET) refers to stm32f1xx_it.o(i.DebugMon_Handler) for DebugMon_Handler
    startup_stm32f103xb.o(RESET) refers to stm32f1xx_it.o(i.PendSV_Handler) for PendSV_Handler
    startup_stm32f103xb.o(RESET) refers to stm32f1xx_it.o(i.SysTick_Handler) for SysTick_Handler
    startup_stm32f103xb.o(.text) refers to system_stm32f1xx.o(i.SystemInit) for SystemInit
    startup_stm32f103xb.o(.text) refers to entry.o(.ARM.Collect$$$$00000000) for __main
    uart.o(i.UART_SendNL) refers to memcpya.o(.text) for __aeabi_memcpy4
    uart.o(i.UART_SendNL) refers to uart.o(i.UART_SendString) for UART_SendString
    uart.o(i.UART_SendNumber) refers to memcpya.o(.text) for __aeabi_memcpy4
    uart.o(i.UART_SendNumber) refers to uart.o(i.UART_SendSymbol) for UART_SendSymbol
    uart.o(i.UART_SendString) refers to memcpya.o(.text) for __aeabi_memcpy4
==============================================================================

Removing Unused input sections from the image.

    Removing startup_stm32f103xb.o(HEAP), (512 bytes).
    Removing uart.o(.rev16_text), (4 bytes).
    Removing uart.o(.revsh_text), (4 bytes).
    Removing uart.o(.rrx_text), (6 bytes).
    Removing sensor.o(.rev16_text), (4 bytes).
    Removing sensor.o(.revsh_text), (4 bytes).
    Removing sensor.o(.rrx_text), (6 bytes).
    Removing main.o(.rev16_text), (4 bytes).
    Removing main.o(.revsh_text), (4 bytes).
    Removing main.o(.rrx_text), (6 bytes).
    Removing main.o(i._Error_Handler), (2 bytes).
    Removing stm32f1xx_it.o(.rev16_text), (4 bytes).
    Removing stm32f1xx_it.o(.revsh_text), (4 bytes).
    Removing stm32f1xx_it.o(.rrx_text), (6 bytes).
    Removing stm32f1xx_hal_msp.o(.rev16_text), (4 bytes).
    Removing stm32f1xx_hal_msp.o(.revsh_text), (4 bytes).
    Removing stm32f1xx_hal_msp.o(.rrx_text), (6 bytes).
    Removing stm32f1xx_hal_msp.o(i.HAL_ADC_MspDeInit), (40 bytes).
==============================================================================

Image Symbol Table

    Local Symbols

    Symbol Name                              Value     Ov Type        Size  Object(Section)

    ..//Src/system_stm32f1xx.c               0x00000000   Number         0  system_stm32f1xx.o ABSOLUTE
    ../Drivers/STM32F1xx_HAL_Driver/Src/stm32f1xx_hal.c 0x00000000   Number         0  stm32f1xx_hal.o ABSOLUTE
    ../Drivers/STM32F1xx_HAL_Driver/Src/stm32f1xx_hal_adc.c 0x00000000   Number         0  stm32f1xx_hal_adc.o ABSOLUTE
    ../Drivers/STM32F1xx_HAL_Driver/Src/stm32f1xx_hal_adc_ex.c 0x00000000   Number         0  stm32f1xx_hal_adc_ex.o ABSOLUTE
    ../Drivers/STM32F1xx_HAL_Driver/Src/stm32f1xx_hal_cortex.c 0x00000000   Number         0  stm32f1xx_hal_cortex.o ABSOLUTE
    ../Drivers/STM32F1xx_HAL_Driver/Src/stm32f1xx_hal_dma.c 0x00000000   Number         0  stm32f1xx_hal_dma.o ABSOLUTE
    ../Drivers/STM32F1xx_HAL_Driver/Src/stm32f1xx_hal_flash.c 0x00000000   Number         0  stm32f1xx_hal_flash.o ABSOLUTE
    ../Drivers/STM32F1xx_HAL_Driver/Src/stm32f1xx_hal_flash_ex.c 0x00000000   Number         0  stm32f1xx_hal_flash_ex.o ABSOLUTE
    ../Drivers/STM32F1xx_HAL_Driver/Src/stm32f1xx_hal_gpio.c 0x00000000   Number         0  stm32f1xx_hal_gpio.o ABSOLUTE
    ../Drivers/STM32F1xx_HAL_Driver/Src/stm32f1xx_hal_gpio_ex.c 0x00000000   Number         0  stm32f1xx_hal_gpio_ex.o ABSOLUTE
    ../Drivers/STM32F1xx_HAL_Driver/Src/stm32f1xx_hal_pwr.c 0x00000000   Number         0  stm32f1xx_hal_pwr.o ABSOLUTE
    ../Drivers/STM32F1xx_HAL_Driver/Src/stm32f1xx_hal_rcc.c 0x00000000   Number         0  stm32f1xx_hal_rcc.o ABSOLUTE
    ../Drivers/STM32F1xx_HAL_Driver/Src/stm32f1xx_hal_rcc_ex.c 0x00000000   Number         0  stm32f1xx_hal_rcc_ex.o ABSOLUTE
    ../Drivers/STM32F1xx_HAL_Driver/Src/stm32f1xx_hal_tim.c 0x00000000   Number         0  stm32f1xx_hal_tim.o ABSOLUTE
    ../Drivers/STM32F1xx_HAL_Driver/Src/stm32f1xx_hal_tim_ex.c 0x00000000   Number         0  stm32f1xx_hal_tim_ex.o ABSOLUTE
    ../Drivers/STM32F1xx_HAL_Driver/Src/stm32f1xx_hal_uart.c 0x00000000   Number         0  stm32f1xx_hal_uart.o ABSOLUTE
    ../Src/main.c                            0x00000000   Number         0  main.o ABSOLUTE
    ../Src/stm32f1xx_hal_msp.c               0x00000000   Number         0  stm32f1xx_hal_msp.o ABSOLUTE
    ../Src/stm32f1xx_it.c                    0x00000000   Number         0  stm32f1xx_it.o ABSOLUTE
    ../clib/microlib/init/entry.s            0x00000000   Number         0  entry11b.o ABSOLUTE
    ../clib/microlib/init/entry.s            0x00000000   Number         0  entry11a.o ABSOLUTE
    ../clib/microlib/init/entry.s            0x00000000   Number         0  entry10b.o ABSOLUTE
    ../clib/microlib/init/entry.s            0x00000000   Number         0  entry8a.o ABSOLUTE
    ../clib/microlib/init/entry.s            0x00000000   Number         0  entry8b.o ABSOLUTE
    ../clib/microlib/init/entry.s            0x00000000   Number         0  entry7b.o ABSOLUTE
    ../clib/microlib/init/entry.s            0x00000000   Number         0  entry7a.o ABSOLUTE
    ../clib/microlib/init/entry.s            0x00000000   Number         0  entry5.o ABSOLUTE
    ../clib/microlib/init/entry.s            0x00000000   Number         0  entry2.o ABSOLUTE
    ../clib/microlib/init/entry.s            0x00000000   Number         0  entry10a.o ABSOLUTE
    ../clib/microlib/init/entry.s            0x00000000   Number         0  entry9a.o ABSOLUTE
    ../clib/microlib/init/entry.s            0x00000000   Number         0  entry9b.o ABSOLUTE
    ../clib/microlib/init/entry.s            0x00000000   Number         0  entry.o ABSOLUTE
    ../clib/microlib/longlong.c              0x00000000   Number         0  llsshr.o ABSOLUTE
    ../clib/microlib/longlong.c              0x00000000   Number         0  llshl.o ABSOLUTE
    ../clib/microlib/longlong.c              0x00000000   Number         0  llushr.o ABSOLUTE
    ../clib/microlib/string/memcpy.c         0x00000000   Number         0  memcpyb.o ABSOLUTE
    ../clib/microlib/string/memcpy.c         0x00000000   Number         0  memcpya.o ABSOLUTE
    ../clib/microlib/stubs.s                 0x00000000   Number         0  iusefp.o ABSOLUTE
    ../fplib/microlib/d2f.c                  0x00000000   Number         0  d2f.o ABSOLUTE
    ../fplib/microlib/f2d.c                  0x00000000   Number         0  f2d.o ABSOLUTE
    ../fplib/microlib/fpadd.c                0x00000000   Number         0  dadd.o ABSOLUTE
    ../fplib/microlib/fpepilogue.c           0x00000000   Number         0  depilogue.o ABSOLUTE
    ../fplib/microlib/fpepilogue.c           0x00000000   Number         0  fepilogue.o ABSOLUTE
    ../fplib/microlib/fpfix.c                0x00000000   Number         0  ffixui.o ABSOLUTE
    ../fplib/microlib/fpflt.c                0x00000000   Number         0  ffltui.o ABSOLUTE
    ../fplib/microlib/fpmul.c                0x00000000   Number         0  fmul.o ABSOLUTE
    ..\Drivers\STM32F1xx_HAL_Driver\Src\stm32f1xx_hal.c 0x00000000   Number         0  stm32f1xx_hal.o ABSOLUTE
    ..\Drivers\STM32F1xx_HAL_Driver\Src\stm32f1xx_hal_adc.c 0x00000000   Number         0  stm32f1xx_hal_adc.o ABSOLUTE
    ..\Drivers\STM32F1xx_HAL_Driver\Src\stm32f1xx_hal_adc_ex.c 0x00000000   Number         0  stm32f1xx_hal_adc_ex.o ABSOLUTE
    ..\Drivers\STM32F1xx_HAL_Driver\Src\stm32f1xx_hal_cortex.c 0x00000000   Number         0  stm32f1xx_hal_cortex.o ABSOLUTE
    ..\Drivers\STM32F1xx_HAL_Driver\Src\stm32f1xx_hal_dma.c 0x00000000   Number         0  stm32f1xx_hal_dma.o ABSOLUTE
    ..\Drivers\STM32F1xx_HAL_Driver\Src\stm32f1xx_hal_flash.c 0x00000000   Number         0  stm32f1xx_hal_flash.o ABSOLUTE
    ..\Drivers\STM32F1xx_HAL_Driver\Src\stm32f1xx_hal_flash_ex.c 0x00000000   Number         0  stm32f1xx_hal_flash_ex.o ABSOLUTE
    ..\Drivers\STM32F1xx_HAL_Driver\Src\stm32f1xx_hal_gpio.c 0x00000000   Number         0  stm32f1xx_hal_gpio.o ABSOLUTE
    ..\Drivers\STM32F1xx_HAL_Driver\Src\stm32f1xx_hal_gpio_ex.c 0x00000000   Number         0  stm32f1xx_hal_gpio_ex.o ABSOLUTE
    ..\Drivers\STM32F1xx_HAL_Driver\Src\stm32f1xx_hal_pwr.c 0x00000000   Number         0  stm32f1xx_hal_pwr.o ABSOLUTE
    ..\Drivers\STM32F1xx_HAL_Driver\Src\stm32f1xx_hal_rcc.c 0x00000000   Number         0  stm32f1xx_hal_rcc.o ABSOLUTE
    ..\Drivers\STM32F1xx_HAL_Driver\Src\stm32f1xx_hal_rcc_ex.c 0x00000000   Number         0  stm32f1xx_hal_rcc_ex.o ABSOLUTE
    ..\Drivers\STM32F1xx_HAL_Driver\Src\stm32f1xx_hal_tim.c 0x00000000   Number         0  stm32f1xx_hal_tim.o ABSOLUTE
    ..\Drivers\STM32F1xx_HAL_Driver\Src\stm32f1xx_hal_tim_ex.c 0x00000000   Number         0  stm32f1xx_hal_tim_ex.o ABSOLUTE
    ..\Drivers\STM32F1xx_HAL_Driver\Src\stm32f1xx_hal_uart.c 0x00000000   Number         0  stm32f1xx_hal_uart.o ABSOLUTE
    ..\Src\main.c                            0x00000000   Number         0  main.o ABSOLUTE
    ..\Src\sensor.c                          0x00000000   Number         0  sensor.o ABSOLUTE
    ..\Src\stm32f1xx_hal_msp.c               0x00000000   Number         0  stm32f1xx_hal_msp.o ABSOLUTE
    ..\Src\stm32f1xx_it.c                    0x00000000   Number         0  stm32f1xx_it.o ABSOLUTE
    ..\Src\uart.c                            0x00000000   Number         0  uart.o ABSOLUTE
    ..\\Src\\sensor.c                        0x00000000   Number         0  sensor.o ABSOLUTE
    ..\\Src\\uart.c                          0x00000000   Number         0  uart.o ABSOLUTE
    ..\\Src\system_stm32f1xx.c               0x00000000   Number         0  system_stm32f1xx.o ABSOLUTE
    dc.s                                     0x00000000   Number         0  dc.o ABSOLUTE
    handlers.s                               0x00000000   Number         0  handlers.o ABSOLUTE
    init.s                                   0x00000000   Number         0  init.o ABSOLUTE
    startup_stm32f103xb.s                    0x00000000   Number         0  startup_stm32f103xb.o ABSOLUTE
    RESET                                    0x08002000   Section      236  startup_stm32f103xb.o(RESET)
    .ARM.Collect$$$$00000000                 0x080020ec   Section        0  entry.o(.ARM.Collect$$$$00000000)
    .ARM.Collect$$$$00000001                 0x080020ec   Section        4  entry2.o(.ARM.Collect$$$$00000001)
    .ARM.Collect$$$$00000004                 0x080020f0   Section        4  entry5.o(.ARM.Collect$$$$00000004)
    .ARM.Collect$$$$00000008                 0x080020f4   Section        0  entry7b.o(.ARM.Collect$$$$00000008)
    .ARM.Collect$$$$0000000A                 0x080020f4   Section        0  entry8b.o(.ARM.Collect$$$$0000000A)
    .ARM.Collect$$$$0000000B                 0x080020f4   Section        8  entry9a.o(.ARM.Collect$$$$0000000B)
    .ARM.Collect$$$$0000000D                 0x080020fc   Section        0  entry10a.o(.ARM.Collect$$$$0000000D)
    .ARM.Collect$$$$0000000F                 0x080020fc   Section        0  entry11a.o(.ARM.Collect$$$$0000000F)
    .ARM.Collect$$$$00002712                 0x080020fc   Section        4  entry2.o(.ARM.Collect$$$$00002712)
    __lit__00000000                          0x080020fc   Data           4  entry2.o(.ARM.Collect$$$$00002712)
    .text                                    0x08002100   Section       36  startup_stm32f103xb.o(.text)
    .text                                    0x08002124   Section        0  llushr.o(.text)
    .text                                    0x08002144   Section        0  memcpya.o(.text)
    .text                                    0x08002168   Section        0  fmul.o(.text)
    .text                                    0x080021cc   Section        0  dadd.o(.text)
    .text                                    0x0800231a   Section        0  ffltui.o(.text)
    .text                                    0x08002324   Section        0  ffixui.o(.text)
    .text                                    0x0800234c   Section        0  f2d.o(.text)
    .text                                    0x08002372   Section        0  d2f.o(.text)
    .text                                    0x080023aa   Section        0  llshl.o(.text)
    .text                                    0x080023c8   Section        0  llsshr.o(.text)
    .text                                    0x080023ec   Section        0  iusefp.o(.text)
    .text                                    0x080023ec   Section        0  fepilogue.o(.text)
    .text                                    0x0800245a   Section        0  depilogue.o(.text)
    .text                                    0x08002514   Section       36  init.o(.text)
    i.ADC_ConversionStop_Disable             0x08002538   Section        0  stm32f1xx_hal_adc.o(i.ADC_ConversionStop_Disable)
    i.ADC_Enable                             0x08002584   Section        0  stm32f1xx_hal_adc.o(i.ADC_Enable)
    i.BusFault_Handler                       0x080025f4   Section        0  stm32f1xx_it.o(i.BusFault_Handler)
    i.DebugMon_Handler                       0x080025f6   Section        0  stm32f1xx_it.o(i.DebugMon_Handler)
    i.HAL_ADC_ConfigChannel                  0x080025f8   Section        0  stm32f1xx_hal_adc.o(i.HAL_ADC_ConfigChannel)
    i.HAL_ADC_GetValue                       0x080026f4   Section        0  stm32f1xx_hal_adc.o(i.HAL_ADC_GetValue)
    i.HAL_ADC_Init                           0x080026fc   Section        0  stm32f1xx_hal_adc.o(i.HAL_ADC_Init)
    i.HAL_ADC_MspInit                        0x08002818   Section        0  stm32f1xx_hal_msp.o(i.HAL_ADC_MspInit)
    i.HAL_ADC_PollForConversion              0x08002858   Section        0  stm32f1xx_hal_adc.o(i.HAL_ADC_PollForConversion)
    i.HAL_ADC_Start                          0x08002988   Section        0  stm32f1xx_hal_adc.o(i.HAL_ADC_Start)
    i.HAL_ADC_Stop                           0x08002a48   Section        0  stm32f1xx_hal_adc.o(i.HAL_ADC_Stop)
    i.HAL_Delay                              0x08002a7c   Section        0  stm32f1xx_hal.o(i.HAL_Delay)
    i.HAL_GPIO_Init                          0x08002aa0   Section        0  stm32f1xx_hal_gpio.o(i.HAL_GPIO_Init)
    i.HAL_GPIO_TogglePin                     0x08002c5c   Section        0  stm32f1xx_hal_gpio.o(i.HAL_GPIO_TogglePin)
    i.HAL_GPIO_WritePin                      0x08002c64   Section        0  stm32f1xx_hal_gpio.o(i.HAL_GPIO_WritePin)
    i.HAL_GetTick                            0x08002c70   Section        0  stm32f1xx_hal.o(i.HAL_GetTick)
    i.HAL_IncTick                            0x08002c7c   Section        0  stm32f1xx_hal.o(i.HAL_IncTick)
    i.HAL_Init                               0x08002c8c   Section        0  stm32f1xx_hal.o(i.HAL_Init)
    i.HAL_InitTick                           0x08002cb0   Section        0  stm32f1xx_hal.o(i.HAL_InitTick)
    i.HAL_MspInit                            0x08002cf0   Section        0  stm32f1xx_hal_msp.o(i.HAL_MspInit)
    i.HAL_NVIC_SetPriority                   0x08002d80   Section        0  stm32f1xx_hal_cortex.o(i.HAL_NVIC_SetPriority)
    i.HAL_NVIC_SetPriorityGrouping           0x08002dc0   Section        0  stm32f1xx_hal_cortex.o(i.HAL_NVIC_SetPriorityGrouping)
    i.HAL_RCCEx_GetPeriphCLKFreq             0x08002de4   Section        0  stm32f1xx_hal_rcc_ex.o(i.HAL_RCCEx_GetPeriphCLKFreq)
    i.HAL_RCCEx_PeriphCLKConfig              0x08002eac   Section        0  stm32f1xx_hal_rcc_ex.o(i.HAL_RCCEx_PeriphCLKConfig)
    i.HAL_RCC_ClockConfig                    0x08002f98   Section        0  stm32f1xx_hal_rcc.o(i.HAL_RCC_ClockConfig)
    i.HAL_RCC_GetHCLKFreq                    0x080030ec   Section        0  stm32f1xx_hal_rcc.o(i.HAL_RCC_GetHCLKFreq)
    i.HAL_RCC_GetPCLK1Freq                   0x080030f8   Section        0  stm32f1xx_hal_rcc.o(i.HAL_RCC_GetPCLK1Freq)
    i.HAL_RCC_GetPCLK2Freq                   0x08003118   Section        0  stm32f1xx_hal_rcc.o(i.HAL_RCC_GetPCLK2Freq)
    i.HAL_RCC_GetSysClockFreq                0x08003138   Section        0  stm32f1xx_hal_rcc.o(i.HAL_RCC_GetSysClockFreq)
    i.HAL_RCC_OscConfig                      0x080031a4   Section        0  stm32f1xx_hal_rcc.o(i.HAL_RCC_OscConfig)
    i.HAL_SYSTICK_CLKSourceConfig            0x080034a8   Section        0  stm32f1xx_hal_cortex.o(i.HAL_SYSTICK_CLKSourceConfig)
    i.HAL_SYSTICK_Callback                   0x080034c0   Section        0  stm32f1xx_hal_cortex.o(i.HAL_SYSTICK_Callback)
    i.HAL_SYSTICK_Config                     0x080034c2   Section        0  stm32f1xx_hal_cortex.o(i.HAL_SYSTICK_Config)
    i.HAL_SYSTICK_IRQHandler                 0x080034ea   Section        0  stm32f1xx_hal_cortex.o(i.HAL_SYSTICK_IRQHandler)
    i.HAL_UART_Init                          0x080034f2   Section        0  stm32f1xx_hal_uart.o(i.HAL_UART_Init)
    i.HAL_UART_MspInit                       0x08003554   Section        0  stm32f1xx_hal_msp.o(i.HAL_UART_MspInit)
    i.HardFault_Handler                      0x080035ac   Section        0  stm32f1xx_it.o(i.HardFault_Handler)
    i.MX_ADC1_Init                           0x080035b0   Section        0  main.o(i.MX_ADC1_Init)
    MX_ADC1_Init                             0x080035b1   Thumb Code    58  main.o(i.MX_ADC1_Init)
    i.MX_GPIO_Init                           0x080035f4   Section        0  main.o(i.MX_GPIO_Init)
    MX_GPIO_Init                             0x080035f5   Thumb Code    94  main.o(i.MX_GPIO_Init)
    i.MemManage_Handler                      0x0800365c   Section        0  stm32f1xx_it.o(i.MemManage_Handler)
    i.NMI_Handler                            0x0800365e   Section        0  stm32f1xx_it.o(i.NMI_Handler)
    i.NVIC_SetPriority                       0x08003660   Section        0  stm32f1xx_hal_cortex.o(i.NVIC_SetPriority)
    NVIC_SetPriority                         0x08003661   Thumb Code    32  stm32f1xx_hal_cortex.o(i.NVIC_SetPriority)
    i.PendSV_Handler                         0x08003680   Section        0  stm32f1xx_it.o(i.PendSV_Handler)
    i.SVC_Handler                            0x08003682   Section        0  stm32f1xx_it.o(i.SVC_Handler)
    i.Sensor_Config                          0x08003684   Section        0  sensor.o(i.Sensor_Config)
    i.Sensor_State                           0x08003908   Section        0  sensor.o(i.Sensor_State)
    i.SysTick_Handler                        0x08003a28   Section        0  stm32f1xx_it.o(i.SysTick_Handler)
    i.SystemClock_Config                     0x08003a36   Section        0  main.o(i.SystemClock_Config)
    i.SystemInit                             0x08003aa0   Section        0  system_stm32f1xx.o(i.SystemInit)
    i.UART_SendNL                            0x08003aec   Section        0  uart.o(i.UART_SendNL)
    i.UART_SendNumber                        0x08003b5c   Section        0  uart.o(i.UART_SendNumber)
    i.UART_SendString                        0x08003bfa   Section        0  uart.o(i.UART_SendString)
    i.UART_SendSymbol                        0x08003c76   Section        0  uart.o(i.UART_SendSymbol)
    i.UART_SetConfig                         0x08003c8c   Section        0  stm32f1xx_hal_uart.o(i.UART_SetConfig)
    UART_SetConfig                           0x08003c8d   Thumb Code   364  stm32f1xx_hal_uart.o(i.UART_SetConfig)
    i.UsageFault_Handler                     0x08003dfc   Section        0  stm32f1xx_it.o(i.UsageFault_Handler)
    i.__scatterload_copy                     0x08003dfe   Section       14  handlers.o(i.__scatterload_copy)
    i.__scatterload_null                     0x08003e0c   Section        2  handlers.o(i.__scatterload_null)
    i.__scatterload_zeroinit                 0x08003e0e   Section       14  handlers.o(i.__scatterload_zeroinit)
    i.main                                   0x08003e1c   Section        0  main.o(i.main)
    .constdata                               0x080042dc   Section       16  system_stm32f1xx.o(.constdata)
    .constdata                               0x080042ec   Section        8  system_stm32f1xx.o(.constdata)
    .data                                    0x20000000   Section        4  main.o(.data)
    .data                                    0x20000004   Section       12  stm32f1xx_hal.o(.data)
    .data                                    0x20000010   Section        4  system_stm32f1xx.o(.data)
    .bss                                     0x20000014   Section      112  main.o(.bss)
    STACK                                    0x20000088   Section     1024  startup_stm32f103xb.o(STACK)

    Global Symbols

    Symbol Name                              Value     Ov Type        Size  Object(Section)

    BuildAttributes$$THM_ISAv4$P$D$K$B$S$PE$A:L22UL41UL21$X:L11$S22US41US21$IEEE1$IW$USESV6$~STKCKD$USESV7$~SHL$OTIME$ROPI$EBA8$MICROLIB$REQ8$PRES8$EABIv2 0x00000000   Number         0  anon$$obj.o ABSOLUTE
    __ARM_use_no_argv                        0x00000000   Number         0  main.o ABSOLUTE
    __cpp_initialize__aeabi_                  - Undefined Weak Reference
    __cxa_finalize                            - Undefined Weak Reference
    __decompress                              - Undefined Weak Reference
    _clock_init                               - Undefined Weak Reference
    _microlib_exit                            - Undefined Weak Reference
    __Vectors_Size                           0x000000ec   Number         0  startup_stm32f103xb.o ABSOLUTE
    __Vectors                                0x08002000   Data           4  startup_stm32f103xb.o(RESET)
    __Vectors_End                            0x080020ec   Data           0  startup_stm32f103xb.o(RESET)
    __main                                   0x080020ed   Thumb Code     0  entry.o(.ARM.Collect$$$$00000000)
    _main_stk                                0x080020ed   Thumb Code     0  entry2.o(.ARM.Collect$$$$00000001)
    _main_scatterload                        0x080020f1   Thumb Code     0  entry5.o(.ARM.Collect$$$$00000004)
    __main_after_scatterload                 0x080020f5   Thumb Code     0  entry5.o(.ARM.Collect$$$$00000004)
    _main_clock                              0x080020f5   Thumb Code     0  entry7b.o(.ARM.Collect$$$$00000008)
    _main_cpp_init                           0x080020f5   Thumb Code     0  entry8b.o(.ARM.Collect$$$$0000000A)
    _main_init                               0x080020f5   Thumb Code     0  entry9a.o(.ARM.Collect$$$$0000000B)
    __rt_final_cpp                           0x080020fd   Thumb Code     0  entry10a.o(.ARM.Collect$$$$0000000D)
    __rt_final_exit                          0x080020fd   Thumb Code     0  entry11a.o(.ARM.Collect$$$$0000000F)
    Reset_Handler                            0x08002101   Thumb Code     8  startup_stm32f103xb.o(.text)
    ADC1_2_IRQHandler                        0x0800211b   Thumb Code     0  startup_stm32f103xb.o(.text)
    CAN1_RX1_IRQHandler                      0x0800211b   Thumb Code     0  startup_stm32f103xb.o(.text)
    CAN1_SCE_IRQHandler                      0x0800211b   Thumb Code     0  startup_stm32f103xb.o(.text)
    DMA1_Channel1_IRQHandler                 0x0800211b   Thumb Code     0  startup_stm32f103xb.o(.text)
    DMA1_Channel2_IRQHandler                 0x0800211b   Thumb Code     0  startup_stm32f103xb.o(.text)
    DMA1_Channel3_IRQHandler                 0x0800211b   Thumb Code     0  startup_stm32f103xb.o(.text)
    DMA1_Channel4_IRQHandler                 0x0800211b   Thumb Code     0  startup_stm32f103xb.o(.text)
    DMA1_Channel5_IRQHandler                 0x0800211b   Thumb Code     0  startup_stm32f103xb.o(.text)
    DMA1_Channel6_IRQHandler                 0x0800211b   Thumb Code     0  startup_stm32f103xb.o(.text)
    DMA1_Channel7_IRQHandler                 0x0800211b   Thumb Code     0  startup_stm32f103xb.o(.text)
    EXTI0_IRQHandler                         0x0800211b   Thumb Code     0  startup_stm32f103xb.o(.text)
    EXTI15_10_IRQHandler                     0x0800211b   Thumb Code     0  startup_stm32f103xb.o(.text)
    EXTI1_IRQHandler                         0x0800211b   Thumb Code     0  startup_stm32f103xb.o(.text)
    EXTI2_IRQHandler                         0x0800211b   Thumb Code     0  startup_stm32f103xb.o(.text)
    EXTI3_IRQHandler                         0x0800211b   Thumb Code     0  startup_stm32f103xb.o(.text)
    EXTI4_IRQHandler                         0x0800211b   Thumb Code     0  startup_stm32f103xb.o(.text)
    EXTI9_5_IRQHandler                       0x0800211b   Thumb Code     0  startup_stm32f103xb.o(.text)
    FLASH_IRQHandler                         0x0800211b   Thumb Code     0  startup_stm32f103xb.o(.text)
    I2C1_ER_IRQHandler                       0x0800211b   Thumb Code     0  startup_stm32f103xb.o(.text)
    I2C1_EV_IRQHandler                       0x0800211b   Thumb Code     0  startup_stm32f103xb.o(.text)
    I2C2_ER_IRQHandler                       0x0800211b   Thumb Code     0  startup_stm32f103xb.o(.text)
    I2C2_EV_IRQHandler                       0x0800211b   Thumb Code     0  startup_stm32f103xb.o(.text)
    PVD_IRQHandler                           0x0800211b   Thumb Code     0  startup_stm32f103xb.o(.text)
    RCC_IRQHandler                           0x0800211b   Thumb Code     0  startup_stm32f103xb.o(.text)
    RTC_Alarm_IRQHandler                     0x0800211b   Thumb Code     0  startup_stm32f103xb.o(.text)
    RTC_IRQHandler                           0x0800211b   Thumb Code     0  startup_stm32f103xb.o(.text)
    SPI1_IRQHandler                          0x0800211b   Thumb Code     0  startup_stm32f103xb.o(.text)
    SPI2_IRQHandler                          0x0800211b   Thumb Code     0  startup_stm32f103xb.o(.text)
    TAMPER_IRQHandler                        0x0800211b   Thumb Code     0  startup_stm32f103xb.o(.text)
    TIM1_BRK_IRQHandler                      0x0800211b   Thumb Code     0  startup_stm32f103xb.o(.text)
    TIM1_CC_IRQHandler                       0x0800211b   Thumb Code     0  startup_stm32f103xb.o(.text)
    TIM1_TRG_COM_IRQHandler                  0x0800211b   Thumb Code     0  startup_stm32f103xb.o(.text)
    TIM1_UP_IRQHandler                       0x0800211b   Thumb Code     0  startup_stm32f103xb.o(.text)
    TIM2_IRQHandler                          0x0800211b   Thumb Code     0  startup_stm32f103xb.o(.text)
    TIM3_IRQHandler                          0x0800211b   Thumb Code     0  startup_stm32f103xb.o(.text)
    TIM4_IRQHandler                          0x0800211b   Thumb Code     0  startup_stm32f103xb.o(.text)
    USART1_IRQHandler                        0x0800211b   Thumb Code     0  startup_stm32f103xb.o(.text)
    USART2_IRQHandler                        0x0800211b   Thumb Code     0  startup_stm32f103xb.o(.text)
    USART3_IRQHandler                        0x0800211b   Thumb Code     0  startup_stm32f103xb.o(.text)
    USBWakeUp_IRQHandler                     0x0800211b   Thumb Code     0  startup_stm32f103xb.o(.text)
    USB_HP_CAN1_TX_IRQHandler                0x0800211b   Thumb Code     0  startup_stm32f103xb.o(.text)
    USB_LP_CAN1_RX0_IRQHandler               0x0800211b   Thumb Code     0  startup_stm32f103xb.o(.text)
    WWDG_IRQHandler                          0x0800211b   Thumb Code     0  startup_stm32f103xb.o(.text)
    __aeabi_llsr                             0x08002125   Thumb Code    32  llushr.o(.text)
    _ll_ushift_r                             0x08002125   Thumb Code     0  llushr.o(.text)
    __aeabi_memcpy                           0x08002145   Thumb Code    36  memcpya.o(.text)
    __aeabi_memcpy4                          0x08002145   Thumb Code     0  memcpya.o(.text)
    __aeabi_memcpy8                          0x08002145   Thumb Code     0  memcpya.o(.text)
    __aeabi_fmul                             0x08002169   Thumb Code   100  fmul.o(.text)
    __aeabi_dadd                             0x080021cd   Thumb Code   322  dadd.o(.text)
    __aeabi_dsub                             0x0800230f   Thumb Code     6  dadd.o(.text)
    __aeabi_drsub                            0x08002315   Thumb Code     6  dadd.o(.text)
    __aeabi_ui2f                             0x0800231b   Thumb Code    10  ffltui.o(.text)
    __aeabi_f2uiz                            0x08002325   Thumb Code    40  ffixui.o(.text)
    __aeabi_f2d                              0x0800234d   Thumb Code    38  f2d.o(.text)
    __aeabi_d2f                              0x08002373   Thumb Code    56  d2f.o(.text)
    __aeabi_llsl                             0x080023ab   Thumb Code    30  llshl.o(.text)
    _ll_shift_l                              0x080023ab   Thumb Code     0  llshl.o(.text)
    __aeabi_lasr                             0x080023c9   Thumb Code    36  llsshr.o(.text)
    _ll_sshift_r                             0x080023c9   Thumb Code     0  llsshr.o(.text)
    __I$use$fp                               0x080023ed   Thumb Code     0  iusefp.o(.text)
    _float_round                             0x080023ed   Thumb Code    18  fepilogue.o(.text)
    _float_epilogue                          0x080023ff   Thumb Code    92  fepilogue.o(.text)
    _double_round                            0x0800245b   Thumb Code    30  depilogue.o(.text)
    _double_epilogue                         0x08002479   Thumb Code   156  depilogue.o(.text)
    __scatterload                            0x08002515   Thumb Code    28  init.o(.text)
    __scatterload_rt2                        0x08002515   Thumb Code     0  init.o(.text)
    ADC_ConversionStop_Disable               0x08002539   Thumb Code    76  stm32f1xx_hal_adc.o(i.ADC_ConversionStop_Disable)
    ADC_Enable                               0x08002585   Thumb Code   104  stm32f1xx_hal_adc.o(i.ADC_Enable)
    BusFault_Handler                         0x080025f5   Thumb Code     2  stm32f1xx_it.o(i.BusFault_Handler)
    DebugMon_Handler                         0x080025f7   Thumb Code     2  stm32f1xx_it.o(i.DebugMon_Handler)
    HAL_ADC_ConfigChannel                    0x080025f9   Thumb Code   240  stm32f1xx_hal_adc.o(i.HAL_ADC_ConfigChannel)
    HAL_ADC_GetValue                         0x080026f5   Thumb Code     6  stm32f1xx_hal_adc.o(i.HAL_ADC_GetValue)
    HAL_ADC_Init                             0x080026fd   Thumb Code   272  stm32f1xx_hal_adc.o(i.HAL_ADC_Init)
    HAL_ADC_MspInit                          0x08002819   Thumb Code    50  stm32f1xx_hal_msp.o(i.HAL_ADC_MspInit)
    HAL_ADC_PollForConversion                0x08002859   Thumb Code   290  stm32f1xx_hal_adc.o(i.HAL_ADC_PollForConversion)
    HAL_ADC_Start                            0x08002989   Thumb Code   184  stm32f1xx_hal_adc.o(i.HAL_ADC_Start)
    HAL_ADC_Stop                             0x08002a49   Thumb Code    52  stm32f1xx_hal_adc.o(i.HAL_ADC_Stop)
    HAL_Delay                                0x08002a7d   Thumb Code    32  stm32f1xx_hal.o(i.HAL_Delay)
    HAL_GPIO_Init                            0x08002aa1   Thumb Code   408  stm32f1xx_hal_gpio.o(i.HAL_GPIO_Init)
    HAL_GPIO_TogglePin                       0x08002c5d   Thumb Code     8  stm32f1xx_hal_gpio.o(i.HAL_GPIO_TogglePin)
    HAL_GPIO_WritePin                        0x08002c65   Thumb Code    10  stm32f1xx_hal_gpio.o(i.HAL_GPIO_WritePin)
    HAL_GetTick                              0x08002c71   Thumb Code     6  stm32f1xx_hal.o(i.HAL_GetTick)
    HAL_IncTick                              0x08002c7d   Thumb Code    12  stm32f1xx_hal.o(i.HAL_IncTick)
    HAL_Init                                 0x08002c8d   Thumb Code    32  stm32f1xx_hal.o(i.HAL_Init)
    HAL_InitTick                             0x08002cb1   Thumb Code    54  stm32f1xx_hal.o(i.HAL_InitTick)
    HAL_MspInit                              0x08002cf1   Thumb Code   134  stm32f1xx_hal_msp.o(i.HAL_MspInit)
    HAL_NVIC_SetPriority                     0x08002d81   Thumb Code    60  stm32f1xx_hal_cortex.o(i.HAL_NVIC_SetPriority)
    HAL_NVIC_SetPriorityGrouping             0x08002dc1   Thumb Code    26  stm32f1xx_hal_cortex.o(i.HAL_NVIC_SetPriorityGrouping)
    HAL_RCCEx_GetPeriphCLKFreq               0x08002de5   Thumb Code   166  stm32f1xx_hal_rcc_ex.o(i.HAL_RCCEx_GetPeriphCLKFreq)
    HAL_RCCEx_PeriphCLKConfig                0x08002ead   Thumb Code   224  stm32f1xx_hal_rcc_ex.o(i.HAL_RCCEx_PeriphCLKConfig)
    HAL_RCC_ClockConfig                      0x08002f99   Thumb Code   322  stm32f1xx_hal_rcc.o(i.HAL_RCC_ClockConfig)
    HAL_RCC_GetHCLKFreq                      0x080030ed   Thumb Code     6  stm32f1xx_hal_rcc.o(i.HAL_RCC_GetHCLKFreq)
    HAL_RCC_GetPCLK1Freq                     0x080030f9   Thumb Code    20  stm32f1xx_hal_rcc.o(i.HAL_RCC_GetPCLK1Freq)
    HAL_RCC_GetPCLK2Freq                     0x08003119   Thumb Code    20  stm32f1xx_hal_rcc.o(i.HAL_RCC_GetPCLK2Freq)
    HAL_RCC_GetSysClockFreq                  0x08003139   Thumb Code    74  stm32f1xx_hal_rcc.o(i.HAL_RCC_GetSysClockFreq)
    HAL_RCC_OscConfig                        0x080031a5   Thumb Code   750  stm32f1xx_hal_rcc.o(i.HAL_RCC_OscConfig)
    HAL_SYSTICK_CLKSourceConfig              0x080034a9   Thumb Code    24  stm32f1xx_hal_cortex.o(i.HAL_SYSTICK_CLKSourceConfig)
    HAL_SYSTICK_Callback                     0x080034c1   Thumb Code     2  stm32f1xx_hal_cortex.o(i.HAL_SYSTICK_Callback)
    HAL_SYSTICK_Config                       0x080034c3   Thumb Code    40  stm32f1xx_hal_cortex.o(i.HAL_SYSTICK_Config)
    HAL_SYSTICK_IRQHandler                   0x080034eb   Thumb Code     8  stm32f1xx_hal_cortex.o(i.HAL_SYSTICK_IRQHandler)
    HAL_UART_Init                            0x080034f3   Thumb Code    98  stm32f1xx_hal_uart.o(i.HAL_UART_Init)
    HAL_UART_MspInit                         0x08003555   Thumb Code    76  stm32f1xx_hal_msp.o(i.HAL_UART_MspInit)
    HardFault_Handler                        0x080035ad   Thumb Code     2  stm32f1xx_it.o(i.HardFault_Handler)
    MemManage_Handler                        0x0800365d   Thumb Code     2  stm32f1xx_it.o(i.MemManage_Handler)
    NMI_Handler                              0x0800365f   Thumb Code     2  stm32f1xx_it.o(i.NMI_Handler)
    PendSV_Handler                           0x08003681   Thumb Code     2  stm32f1xx_it.o(i.PendSV_Handler)
    SVC_Handler                              0x08003683   Thumb Code     2  stm32f1xx_it.o(i.SVC_Handler)
    Sensor_Config                            0x08003685   Thumb Code   580  sensor.o(i.Sensor_Config)
    Sensor_State                             0x08003909   Thumb Code   288  sensor.o(i.Sensor_State)
    SysTick_Handler                          0x08003a29   Thumb Code    14  stm32f1xx_it.o(i.SysTick_Handler)
    SystemClock_Config                       0x08003a37   Thumb Code   104  main.o(i.SystemClock_Config)
    SystemInit                               0x08003aa1   Thumb Code    56  system_stm32f1xx.o(i.SystemInit)
    UART_SendNL                              0x08003aed   Thumb Code   106  uart.o(i.UART_SendNL)
    UART_SendNumber                          0x08003b5d   Thumb Code   158  uart.o(i.UART_SendNumber)
    UART_SendString                          0x08003bfb   Thumb Code   124  uart.o(i.UART_SendString)
    UART_SendSymbol                          0x08003c77   Thumb Code    20  uart.o(i.UART_SendSymbol)
    UsageFault_Handler                       0x08003dfd   Thumb Code     2  stm32f1xx_it.o(i.UsageFault_Handler)
    __scatterload_copy                       0x08003dff   Thumb Code    14  handlers.o(i.__scatterload_copy)
    __scatterload_null                       0x08003e0d   Thumb Code     2  handlers.o(i.__scatterload_null)
    __scatterload_zeroinit                   0x08003e0f   Thumb Code    14  handlers.o(i.__scatterload_zeroinit)
    main                                     0x08003e1d   Thumb Code  1216  main.o(i.main)
    AHBPrescTable                            0x080042dc   Data          16  system_stm32f1xx.o(.constdata)
    APBPrescTable                            0x080042ec   Data           8  system_stm32f1xx.o(.constdata)
    Region$$Table$$Base                      0x080042f4   Number         0  anon$$obj.o(Region$$Table)
    Region$$Table$$Limit                     0x08004314   Number         0  anon$$obj.o(Region$$Table)
    touch_min                                0x20000000   Data           4  main.o(.data)
    uwTickFreq                               0x20000004   Data           1  stm32f1xx_hal.o(.data)
    uwTickPrio                               0x20000008   Data           4  stm32f1xx_hal.o(.data)
    uwTick                                   0x2000000c   Data           4  stm32f1xx_hal.o(.data)
    SystemCoreClock                          0x20000010   Data           4  system_stm32f1xx.o(.data)
    hadc1                                    0x20000014   Data          48  main.o(.bss)
    huart1                                   0x20000044   Data          64  main.o(.bss)
    __initial_sp                             0x20000488   Data           0  startup_stm32f103xb.o(STACK)



==============================================================================

Memory Map of the image

  Image Entry point : 0x080020ed

  Load Region LR_IROM1 (Base: 0x08002000, Size: 0x00002328, Max: 0x0000e000, ABSOLUTE)

    Execution Region ER_IROM1 (Exec base: 0x08002000, Load base: 0x08002000, Size: 0x00002314, Max: 0x0000e000, ABSOLUTE)

    Exec Addr    Load Addr    Size         Type   Attr      Idx    E Section Name        Object

    0x08002000   0x08002000   0x000000ec   Data   RO            3    RESET               startup_stm32f103xb.o
    0x080020ec   0x080020ec   0x00000000   Code   RO         1946  * .ARM.Collect$$$$00000000  mc_w.l(entry.o)
    0x080020ec   0x080020ec   0x00000004   Code   RO         1967    .ARM.Collect$$$$00000001  mc_w.l(entry2.o)
    0x080020f0   0x080020f0   0x00000004   Code   RO         1970    .ARM.Collect$$$$00000004  mc_w.l(entry5.o)
    0x080020f4   0x080020f4   0x00000000   Code   RO         1972    .ARM.Collect$$$$00000008  mc_w.l(entry7b.o)
    0x080020f4   0x080020f4   0x00000000   Code   RO         1974    .ARM.Collect$$$$0000000A  mc_w.l(entry8b.o)
    0x080020f4   0x080020f4   0x00000008   Code   RO         1975    .ARM.Collect$$$$0000000B  mc_w.l(entry9a.o)
    0x080020fc   0x080020fc   0x00000000   Code   RO         1977    .ARM.Collect$$$$0000000D  mc_w.l(entry10a.o)
    0x080020fc   0x080020fc   0x00000000   Code   RO         1979    .ARM.Collect$$$$0000000F  mc_w.l(entry11a.o)
    0x080020fc   0x080020fc   0x00000004   Code   RO         1968    .ARM.Collect$$$$00002712  mc_w.l(entry2.o)
    0x08002100   0x08002100   0x00000024   Code   RO            4    .text               startup_stm32f103xb.o
    0x08002124   0x08002124   0x00000020   Code   RO         1949    .text               mc_w.l(llushr.o)
    0x08002144   0x08002144   0x00000024   Code   RO         1951    .text               mc_w.l(memcpya.o)
    0x08002168   0x08002168   0x00000064   Code   RO         1955    .text               mf_w.l(fmul.o)
    0x080021cc   0x080021cc   0x0000014e   Code   RO         1957    .text               mf_w.l(dadd.o)
    0x0800231a   0x0800231a   0x0000000a   Code   RO         1959    .text               mf_w.l(ffltui.o)
    0x08002324   0x08002324   0x00000028   Code   RO         1961    .text               mf_w.l(ffixui.o)
    0x0800234c   0x0800234c   0x00000026   Code   RO         1963    .text               mf_w.l(f2d.o)
    0x08002372   0x08002372   0x00000038   Code   RO         1965    .text               mf_w.l(d2f.o)
    0x080023aa   0x080023aa   0x0000001e   Code   RO         1981    .text               mc_w.l(llshl.o)
    0x080023c8   0x080023c8   0x00000024   Code   RO         1983    .text               mc_w.l(llsshr.o)
    0x080023ec   0x080023ec   0x00000000   Code   RO         1985    .text               mc_w.l(iusefp.o)
    0x080023ec   0x080023ec   0x0000006e   Code   RO         1986    .text               mf_w.l(fepilogue.o)
    0x0800245a   0x0800245a   0x000000ba   Code   RO         1988    .text               mf_w.l(depilogue.o)
    0x08002514   0x08002514   0x00000024   Code   RO         1990    .text               mc_w.l(init.o)
    0x08002538   0x08002538   0x0000004c   Code   RO          385    i.ADC_ConversionStop_Disable  stm32f1xx_hal_adc.o
    0x08002584   0x08002584   0x00000070   Code   RO          389    i.ADC_Enable        stm32f1xx_hal_adc.o
    0x080025f4   0x080025f4   0x00000002   Code   RO          226    i.BusFault_Handler  stm32f1xx_it.o
    0x080025f6   0x080025f6   0x00000002   Code   RO          227    i.DebugMon_Handler  stm32f1xx_it.o
    0x080025f8   0x080025f8   0x000000fc   Code   RO          391    i.HAL_ADC_ConfigChannel  stm32f1xx_hal_adc.o
    0x080026f4   0x080026f4   0x00000006   Code   RO          398    i.HAL_ADC_GetValue  stm32f1xx_hal_adc.o
    0x080026fa   0x080026fa   0x00000002   PAD
    0x080026fc   0x080026fc   0x0000011c   Code   RO          400    i.HAL_ADC_Init      stm32f1xx_hal_adc.o
    0x08002818   0x08002818   0x00000040   Code   RO          302    i.HAL_ADC_MspInit   stm32f1xx_hal_msp.o
    0x08002858   0x08002858   0x00000130   Code   RO          404    i.HAL_ADC_PollForConversion  stm32f1xx_hal_adc.o
    0x08002988   0x08002988   0x000000c0   Code   RO          406    i.HAL_ADC_Start     stm32f1xx_hal_adc.o
    0x08002a48   0x08002a48   0x00000034   Code   RO          409    i.HAL_ADC_Stop      stm32f1xx_hal_adc.o
    0x08002a7c   0x08002a7c   0x00000024   Code   RO         1030    i.HAL_Delay         stm32f1xx_hal.o
    0x08002aa0   0x08002aa0   0x000001bc   Code   RO         1323    i.HAL_GPIO_Init     stm32f1xx_hal_gpio.o
    0x08002c5c   0x08002c5c   0x00000008   Code   RO         1326    i.HAL_GPIO_TogglePin  stm32f1xx_hal_gpio.o
    0x08002c64   0x08002c64   0x0000000a   Code   RO         1327    i.HAL_GPIO_WritePin  stm32f1xx_hal_gpio.o
    0x08002c6e   0x08002c6e   0x00000002   PAD
    0x08002c70   0x08002c70   0x0000000c   Code   RO         1034    i.HAL_GetTick       stm32f1xx_hal.o
    0x08002c7c   0x08002c7c   0x00000010   Code   RO         1038    i.HAL_IncTick       stm32f1xx_hal.o
    0x08002c8c   0x08002c8c   0x00000024   Code   RO         1039    i.HAL_Init          stm32f1xx_hal.o
    0x08002cb0   0x08002cb0   0x00000040   Code   RO         1040    i.HAL_InitTick      stm32f1xx_hal.o
    0x08002cf0   0x08002cf0   0x00000090   Code   RO          303    i.HAL_MspInit       stm32f1xx_hal_msp.o
    0x08002d80   0x08002d80   0x00000040   Code   RO         1489    i.HAL_NVIC_SetPriority  stm32f1xx_hal_cortex.o
    0x08002dc0   0x08002dc0   0x00000024   Code   RO         1490    i.HAL_NVIC_SetPriorityGrouping  stm32f1xx_hal_cortex.o
    0x08002de4   0x08002de4   0x000000c8   Code   RO         1285    i.HAL_RCCEx_GetPeriphCLKFreq  stm32f1xx_hal_rcc_ex.o
    0x08002eac   0x08002eac   0x000000ec   Code   RO         1286    i.HAL_RCCEx_PeriphCLKConfig  stm32f1xx_hal_rcc_ex.o
    0x08002f98   0x08002f98   0x00000154   Code   RO         1183    i.HAL_RCC_ClockConfig  stm32f1xx_hal_rcc.o
    0x080030ec   0x080030ec   0x0000000c   Code   RO         1188    i.HAL_RCC_GetHCLKFreq  stm32f1xx_hal_rcc.o
    0x080030f8   0x080030f8   0x00000020   Code   RO         1190    i.HAL_RCC_GetPCLK1Freq  stm32f1xx_hal_rcc.o
    0x08003118   0x08003118   0x00000020   Code   RO         1191    i.HAL_RCC_GetPCLK2Freq  stm32f1xx_hal_rcc.o
    0x08003138   0x08003138   0x0000006c   Code   RO         1192    i.HAL_RCC_GetSysClockFreq  stm32f1xx_hal_rcc.o
    0x080031a4   0x080031a4   0x00000304   Code   RO         1195    i.HAL_RCC_OscConfig  stm32f1xx_hal_rcc.o
    0x080034a8   0x080034a8   0x00000018   Code   RO         1492    i.HAL_SYSTICK_CLKSourceConfig  stm32f1xx_hal_cortex.o
    0x080034c0   0x080034c0   0x00000002   Code   RO         1493    i.HAL_SYSTICK_Callback  stm32f1xx_hal_cortex.o
    0x080034c2   0x080034c2   0x00000028   Code   RO         1494    i.HAL_SYSTICK_Config  stm32f1xx_hal_cortex.o
    0x080034ea   0x080034ea   0x00000008   Code   RO         1495    i.HAL_SYSTICK_IRQHandler  stm32f1xx_hal_cortex.o
    0x080034f2   0x080034f2   0x00000062   Code   RO          722    i.HAL_UART_Init     stm32f1xx_hal_uart.o
    0x08003554   0x08003554   0x00000058   Code   RO          305    i.HAL_UART_MspInit  stm32f1xx_hal_msp.o
    0x080035ac   0x080035ac   0x00000002   Code   RO          228    i.HardFault_Handler  stm32f1xx_it.o
    0x080035ae   0x080035ae   0x00000002   PAD
    0x080035b0   0x080035b0   0x00000044   Code   RO          173    i.MX_ADC1_Init      main.o
    0x080035f4   0x080035f4   0x00000068   Code   RO          174    i.MX_GPIO_Init      main.o
    0x0800365c   0x0800365c   0x00000002   Code   RO          229    i.MemManage_Handler  stm32f1xx_it.o
    0x0800365e   0x0800365e   0x00000002   Code   RO          230    i.NMI_Handler       stm32f1xx_it.o
    0x08003660   0x08003660   0x00000020   Code   RO         1496    i.NVIC_SetPriority  stm32f1xx_hal_cortex.o
    0x08003680   0x08003680   0x00000002   Code   RO          231    i.PendSV_Handler    stm32f1xx_it.o
    0x08003682   0x08003682   0x00000002   Code   RO          232    i.SVC_Handler       stm32f1xx_it.o
    0x08003684   0x08003684   0x00000284   Code   RO          137    i.Sensor_Config     sensor.o
    0x08003908   0x08003908   0x00000120   Code   RO          138    i.Sensor_State      sensor.o
    0x08003a28   0x08003a28   0x0000000e   Code   RO          233    i.SysTick_Handler   stm32f1xx_it.o
    0x08003a36   0x08003a36   0x00000068   Code   RO          175    i.SystemClock_Config  main.o
    0x08003a9e   0x08003a9e   0x00000002   PAD
    0x08003aa0   0x08003aa0   0x0000004c   Code   RO         1912    i.SystemInit        system_stm32f1xx.o
    0x08003aec   0x08003aec   0x00000070   Code   RO           13    i.UART_SendNL       uart.o
    0x08003b5c   0x08003b5c   0x0000009e   Code   RO           14    i.UART_SendNumber   uart.o
    0x08003bfa   0x08003bfa   0x0000007c   Code   RO           15    i.UART_SendString   uart.o
    0x08003c76   0x08003c76   0x00000014   Code   RO           16    i.UART_SendSymbol   uart.o
    0x08003c8a   0x08003c8a   0x00000002   PAD
    0x08003c8c   0x08003c8c   0x00000170   Code   RO          748    i.UART_SetConfig    stm32f1xx_hal_uart.o
    0x08003dfc   0x08003dfc   0x00000002   Code   RO          234    i.UsageFault_Handler  stm32f1xx_it.o
    0x08003dfe   0x08003dfe   0x0000000e   Code   RO         1994    i.__scatterload_copy  mc_w.l(handlers.o)
    0x08003e0c   0x08003e0c   0x00000002   Code   RO         1995    i.__scatterload_null  mc_w.l(handlers.o)
    0x08003e0e   0x08003e0e   0x0000000e   Code   RO         1996    i.__scatterload_zeroinit  mc_w.l(handlers.o)
    0x08003e1c   0x08003e1c   0x000004c0   Code   RO          177    i.main              main.o
    0x080042dc   0x080042dc   0x00000010   Data   RO         1913    .constdata          system_stm32f1xx.o
    0x080042ec   0x080042ec   0x00000008   Data   RO         1914    .constdata          system_stm32f1xx.o
    0x080042f4   0x080042f4   0x00000020   Data   RO         1992    Region$$Table       anon$$obj.o


    Execution Region RW_IRAM1 (Exec base: 0x20000000, Load base: 0x08004314, Size: 0x00000488, Max: 0x00005000, ABSOLUTE)

    Exec Addr    Load Addr    Size         Type   Attr      Idx    E Section Name        Object

    0x20000000   0x08004314   0x00000004   Data   RW          179    .data               main.o
    0x20000004   0x08004318   0x0000000c   Data   RW         1046    .data               stm32f1xx_hal.o
    0x20000010   0x08004324   0x00000004   Data   RW         1915    .data               system_stm32f1xx.o
    0x20000014        -       0x00000070   Zero   RW          178    .bss                main.o
    0x20000084   0x08004328   0x00000004   PAD
    0x20000088        -       0x00000400   Zero   RW            1    STACK               startup_stm32f103xb.o


==============================================================================

Image component sizes


      Code (inc. data)   RO Data    RW Data    ZI Data      Debug   Object Name

      1492        152          0          4        112       3142   main.o
       932         64          0          0          0       2127   sensor.o
        36          8        236          0       1024        776   startup_stm32f103xb.o
       164         28          0         12          0       3665   stm32f1xx_hal.o
      1278         54          0          0          0       6971   stm32f1xx_hal_adc.o
       206         14          0          0          0      26556   stm32f1xx_hal_cortex.o
       462         36          0          0          0       3353   stm32f1xx_hal_gpio.o
       296         36          0          0          0       2079   stm32f1xx_hal_msp.o
      1296        104          0          0          0       5460   stm32f1xx_hal_rcc.o
       436         46          0          0          0       2457   stm32f1xx_hal_rcc_ex.o
       466          4          0          0          0       1824   stm32f1xx_hal_uart.o
        30          0          0          0          0       3594   stm32f1xx_it.o
        76         20         24          4          0       1075   system_stm32f1xx.o
       414          6          0          0          0     422436   uart.o

    ----------------------------------------------------------------------
      7594        572        292         20       1140     485515   Object Totals
         0          0         32          0          0          0   (incl. Generated)
        10          0          0          0          4          0   (incl. Padding)

    ----------------------------------------------------------------------

      Code (inc. data)   RO Data    RW Data    ZI Data      Debug   Library Member Name

         0          0          0          0          0          0   entry.o
         0          0          0          0          0          0   entry10a.o
         0          0          0          0          0          0   entry11a.o
         8          4          0          0          0          0   entry2.o
         4          0          0          0          0          0   entry5.o
         0          0          0          0          0          0   entry7b.o
         0          0          0          0          0          0   entry8b.o
         8          4          0          0          0          0   entry9a.o
        30          0          0          0          0          0   handlers.o
        36          8          0          0          0         68   init.o
         0          0          0          0          0          0   iusefp.o
        30          0          0          0          0         68   llshl.o
        36          0          0          0          0         68   llsshr.o
        32          0          0          0          0         68   llushr.o
        36          0          0          0          0         68   memcpya.o
        56          0          0          0          0         88   d2f.o
       334          0          0          0          0        148   dadd.o
       186          0          0          0          0        176   depilogue.o
        38          0          0          0          0         68   f2d.o
       110          0          0          0          0        168   fepilogue.o
        40          0          0          0          0         68   ffixui.o
        10          0          0          0          0         68   ffltui.o
       100          0          0          0          0         76   fmul.o

    ----------------------------------------------------------------------
      1094         16          0          0          0       1200   Library Totals
         0          0          0          0          0          0   (incl. Padding)

    ----------------------------------------------------------------------

      Code (inc. data)   RO Data    RW Data    ZI Data      Debug   Library Name

       220         16          0          0          0        340   mc_w.l
       874          0          0          0          0        860   mf_w.l

    ----------------------------------------------------------------------
      1094         16          0          0          0       1200   Library Totals

    ----------------------------------------------------------------------

==============================================================================


      Code (inc. data)   RO Data    RW Data    ZI Data      Debug   

      8688        588        292         20       1140     483539   Grand Totals
      8688        588        292         20       1140     483539   ELF Image Totals
      8688        588        292         20          0          0   ROM Totals

==============================================================================

    Total RO  Size (Code + RO Data)                 8980 (   8.77kB)
    Total RW  Size (RW Data + ZI Data)              1160 (   1.13kB)
    Total ROM Size (Code + RO Data + RW Data)       9000 (   8.79kB)

==============================================================================

