:020000040800F2
:1000000070040020010100089712000893120008F4
:1000100095120008BD0100087516000800000000D8
:10002000000000000000000000000000BB120008FB
:10003000BF01000800000000B9120008BD1200084E
:100040001B0100081B0100081B0100081B01000820
:100050001B0100081B0100081B0100081B01000810
:100060001B0100081B0100081B0100081B01000800
:100070001B0100081B0100081B0100081B010008F0
:100080001B0100081B0100081B0100081B010008E0
:100090001B0100081B0100081B0100081B010008D0
:1000A0001B0100081B0100081B0100081B010008C0
:1000B0001B0100081B0100081B0100081B010008B0
:1000C0001B0100081B0100081B0100081B010008A0
:1000D0001B010008691600081B0100081B0100082D
:1000E0001B0100081B0100081B010008DFF80CD0F1
:1000F00000F030F800480047951600087004002012
:100100000648804706480047FEE7FEE7FEE7FEE7B1
:10011000FEE7FEE7FEE7FEE7FEE7FEE72513000841
:10012000ED000008202A04DB203A21FA02F0002129
:10013000704721FA02F3D040C2F1200291400843F7
:1001400019467047421C10F8011B0029FBD1801A88
:1001500070470000064C074D06E0E06840F00103E0
:1001600094E8070098471034AC42F6D3FFF7C2FF7B
:10017000A8180008C818000870B50D4D6C680D4827
:1001800000F009FFE9130C4800F0C4F900F094FCFA
:1001900000F0ECF84FF0E021002008614861886130
:1001A000286880F30888A446BDE8704060470000D6
:1001B0000020000810000020000C0140FEE77047FE
:1001C00006490020C8610648016941F00401016147
:1001D000016941F0400101617047000050000020BA
:1001E00000200240064A0021D16106490A6942F016
:1001F00002020A614861086940F0400008617047E6
:100200005000002000200240044B0022DA61044A22
:10021000136943F00103136101807047500000200F
:100220000020024014480022C168CB06134904D5BF
:10023000CA6942F00202CA611022C3685B0705D591
:10024000CB6943F00103CB6142F00402C369DB07D1
:1002500007D0CB6943F00403CB61C16921F00101F0
:10026000C161A2F58071013901D0C2607047C169D6
:1002700021F00101C16170470020024050000020C0
:1002800070B5054600F09CFA0646114C09E0681C62
:1002900007D025B100F094FA801BA84201D90320B1
:1002A00070BDE068C007F2D1E068800601D520206B
:1002B000E060E068C00605D4E069C00702D1E068EC
:1002C000400703D5FFF7AEFF012070BD002070BDD1
:1002D0000020024010B590F821100024022903D01C
:1002E0000421816301243DE001680A6822F00E02C6
:1002F0000A6001680A6822F001020A601A4A01686D
:10030000914201D1012121E0174A1432914201D1D9
:1003100010211BE0144A2832914201D1891515E0C1
:10032000114A3C32914201D189140FE00E4A5032F9
:10033000914202D14FF4803108E00B4A643291427D
:1003400002D14FF4801101E04FF08071064A083A63
:100350005160012180F82110002180F82010416BAC
:1003600001B18847204610BD08000240064810B57C
:100370004FF0FF31C16000220261C160C26000F035
:100380005FFA002010BD00000010024070B5044666
:1003900000F016FA0546601C02D0044800780444B8
:1003A00000F00EFA401BA042FAD370BD00000020FE
:1003B0002DE9F047054626480F460126017E012912
:1003C0000FD00121814601762868DFF888804CF241
:1003D0005034022808D0A2462046FFF751FFA8B1AA
:1003E00031E00220BDE8F0872046FFF749FF08BB57
:1003F0000120FFF7E5FE2046FFF742FFD8F8101076
:10040000064621F00401C8F810101CE04FF0FF3040
:100410003860AC6811E02046FFF7E4FE5046FFF775
:100420002FFFD8F81010060021F00201C8F81010B4
:1004300001D03C6007E004F58064D5E9020100EBDF
:100440008120A042E7D8002189F818103046C9E77A
:1004500050000020002002400348016941F0800163
:100460000161002070470000002002402DE9F05F8C
:1004700007461C4888460024017E15461E46012971
:1004800009D00121814601764CF2503A5046FFF7DF
:10049000F7FE18B122E00220BDE8F09F012F02D044
:1004A000022F00D00427D346DFF83CA022012846C3
:1004B0003146FFF737FE81B208EB4400FFF7A4FE98
:1004C0005846FFF7DDFEDAF8102022F00102CAF8E4
:1004D000102018B9641CE4B2BC42E7D3002289F8AA
:1004E0001820D9E7500000200020024006490020D3
:1004F0000A69120607D5054A4A60054A4A60096931
:10050000090600D5012070470020024023016745FD
:10051000AB89EFCD2DE9F04300230F24DFF8C0C0F5
:1005200059E001229A400A4054D0FF2A01D80746D8
:1005300001E000F104074FEA830601D9A6F1200685
:10054000D7F8008004FA06F54FF0040928EA0508F8
:1005500009FA06F948EA0908C7F80080C56825EADB
:100560000205C56023F003056544AF684FEA837652
:100570004FEA167604FA06F909EA0708194FB84255
:1005800001D100270FE0184FB84201D101270AE03E
:10059000164FB84201D1022705E0154FB84201D1EC
:1005A000032700E00427B740474513D1AF6827EA87
:1005B0000907AF600F4D2E6896432E602D1D2E68E3
:1005C00096432E602D1D2E6896432E602D1D2E689D
:1005D00096432E605B1C31FA03F2A2D1BDE8F08392
:1005E0000000014000080140000C014000100140E3
:1005F00000140140000401402DE9F84FDFF890A1FC
:1006000000220AF1040B144601274FF00F090BF1E9
:10061000040E00BF0B6807FA04F52B40AB4274D1FF
:10062000DFF870C14E68A6EB0C0866452BD00DDCD8
:10063000032E34D005DC36B3012E19D0022E2FD173
:100640001BE0112E16D0122E2AD119E0B8F5881F02
:1006500019D006DCB8F5803F15D0B8F5801F1FD142
:1006600011E0B8F5001F0ED0B8F5041F18D10AE04C
:10067000CA6815E0CA68121D12E0CA6808320FE0A5
:10068000CA680C320CE08A682AB1012A4FF00802CD
:1006900003D0456104E0042202E0056100E000228D
:1006A000FF2B01D8064601E000F104064FEA84055D
:1006B00001D9A5F12005D6F800C009FA05F82CEA01
:1006C000080C02FA05F54CEA050CC6F800C04D68A6
:1006D000ED0057D5304DAE6946F00106AE61AD690B
:1006E00024F0030605F0010500952C4D06EB050CE2
:1006F000DCF80850A6074FEA167809FA08F6B54361
:10070000274EB04202D1002610E03BE0254EB04219
:1007100001D101260AE0244EB04201D1022605E0B3
:10072000224EB04201D1032600E0042606FA08F664
:100730002E43CCF808604D68DAF80060ED035546AA
:1007400001D51E4300E09E432E604D68DBF800603B
:10075000AD035D4601D51E4300E09E432E604D680B
:10076000DEF80060ED02754601D51E4300E09E43B1
:100770002E604D68AD020E4D2E6801D51E4300E07F
:100780009E432E60641C102CFFF444AFBDE8F88F2C
:100790000004014000001110001002400000014060
:1007A00000080140000C014000100140001401400D
:1007B0000C0401400AB1016170470904FBE7000025
:1007C00001488068704700000000002002488168EE
:1007D000027811448160704700000020074810B57E
:1007E000016841F010010160032000F0A9F8002029
:1007F00000F006F800F026F8002010BD00200240AE
:1008000070B50D4D04464FF47A712878B1FBF0F0C5
:100810000A490968B1FBF0F000F0A5FB48B9102CBB
:1008200007D200222146501E00F06AF800206C60BA
:1008300070BD012070BD0000000000200C000020F1
:1008400070470000214808B5816941F001018161CC
:10085000816901F001010091C16941F08051C161DC
:10086000C06900F080500090032000F069F8002279
:1008700011466FF00B0000F043F8002211466FF0B4
:100880000A0000F03DF8002211466FF0090000F068
:1008900037F800221146501F00F032F800221146AE
:1008A000101F00F02DF800221146901E00F028F8CD
:1008B00000221146501E00F023F80548416821F03F
:1008C000E06141F08061416008BD0000001002401D
:1008D0000000014000F01F0201219140400980000A
:1008E00000F1E020C0F88011704700F01F020121E4
:1008F00091404009800000F1E020C0F800117047ED
:10090000F0B40E4B1B680C46C3F30223C3F107057A
:10091000042D00D90425191D072901D2002300E068
:10092000DB1E012606FA05F1491E214099409E4032
:10093000761E16403143F0BC00F0AEBC0CED00E07A
:10094000064900F0070208684FF6FF03184040EA26
:100950000220034A10430860704700000CED00E0DD
:100960000000FA052DE9F047DFF83C8105460E4608
:10097000D8F8000000F00700B0420CD2D8F8001000
:1009800021F007013143C8F80010D8F8000000F04A
:100990000700B04263D12878444C800705D56068D1
:1009A000A96820F0F000084360602878C00745D0AF
:1009B0006868012816D02168022816D08907002906
:1009C0004DDA616821F0030101436160FFF7F8FE31
:1009D0006968074641F2883001290FD00229814613
:1009E00019D027E021688903E9E78901E7E700BF1B
:1009F000FFF7E6FEC11B494501D918E08146606852
:100A0000C0F381000128F3D118E000BFFFF7D8FE42
:100A1000C11B49450BD86068C0F381000228F5D19D
:100A20000CE000BFFFF7CCFEC11B494502D90320F3
:100A3000BDE8F087606810F00C0FF3D1D8F8001013
:100A4000404601F00701B1420BD9016821F00701CE
:100A500031430160006800F00700B04201D001207E
:100A6000E6E72878400705D56068E96820F4E0608B
:100A7000084360602878000706D56068296920F47B
:100A8000605040EAC100606000F0A8F86168084A60
:100A9000C1F30311515CC840064908600020FFF70C
:100AA000AFFE0020C4E7000000200240001002401A
:100AB000901800080C0000202DE9F041FFF780FE9F
:100AC000304C0546206840F00100206005E000BF82
:100AD000FFF776FE401B022843D820688007F7D531
:100AE000206820F0F80040F080002060FFF768FEEA
:100AF00000250646656041F2883704E0FFF760FE96
:100B0000801BB8422DD8606810F00C0FF6D11F4939
:100B10001D4808600020FFF773FE10B10120BDE8FA
:100B2000F081FFF74DFE0646206820F080702060BF
:100B300005E000BFFFF744FE801B022811D82068A3
:100B40008001F7D46560FFF73BFE0646206820F47D
:100B50001020206007E000BFFFF732FE801B6428F2
:100B600001D90320DBE720688003F5D4206820F456
:100B700080202060606A40F080706062A560002084
:100B8000CDE700000010024000127A000C000020A7
:100B900001480068704700000C0000200448054927
:100BA00000684968044AC1F30221515CC84070479B
:100BB0000C00002000100240A0180008044805495D
:100BC00000684968044AC1F3C221515CC8407047BB
:100BD0000C00002000100240A018000812A185B0EF
:100BE0000FC98DE80F0014A0144A006804905168E2
:100BF000134801F00C03042B10D0082B0ED1C1F3C5
:100C00008343C9031DF803000AD5516804AAC1F340
:100C10004041515C0A4A5043B0FBF1F005B07047C7
:100C200008494843FAE700000203040506070809DB
:100C30000A0B0C0D0E0F10100102000000100240F4
:100C400000127A0000093D002DE9F84F04460078B3
:100C5000B94DC00748D06868C0F38100012807D0AB
:100C60006868C0F38100022809D16868C00306D50E
:100C70002868800338D5606800286FD034E0606849
:100C8000B0F5803F0BD010B1B0F5A02F11D028687F
:100C900020F480302860286820F4802002E0286852
:100CA00040F480302860606888B1FFF789FD06460F
:100CB00009E0286840F480202860F0E7FFF780FD15
:100CC000801B642875D828688003F7D50CE0FFF7EF
:100CD00077FD064605E000BFFFF772FD801B642824
:100CE000F0D828688003F7D42078944E80074FF01E
:100CF00001094FF000083BD5686810F00C0F07D0D1
:100D00006868C0F38100022809D16868C00306D46E
:100D10002868800714D5206901281FD110E02069B8
:100D2000B0B1C6F80090FFF74BFD074605E000BFE5
:100D3000FFF746FDC01B0228C4D828688007F7D5F6
:100D40002868616920F0F80040EAC10028600FE0DF
:100D5000C6F80080FFF734FD074606E0E9E000BF73
:100D6000FFF72EFDC01B022823D828688007F7D480
:100D7000207800072CD57248A169D9B1C0F800903D
:100D8000FFF71EFD074604E0FFF71AFDC01B02280F
:100D90000FD8686A8007F7D56A484FF4FA5100689F
:100DA000B0FBF1F0009000BF0098411E0091FAD214
:100DB0000EE080E0C0F80080FFF702FD074604E087
:100DC000FFF7FEFCC01B022875D8686A8007F7D4BD
:100DD0002078400760D5E8690027C00008D4E8699A
:100DE00040F08050E861E869012700F080500090F1
:100DF00055480168C90513D40168834641F48071E0
:100E00000160FFF7DDFC824606E000BFFFF7D8FC7B
:100E1000A0EB0A0064284ED8DBF80000C005F5D529
:100E2000E06801280AD008B1052813D0286A20F00C
:100E300001002862286A20F0040002E0286A40F0DD
:100E400001002862E06841F2883B98B1FFF7B8FCE6
:100E500082460BE0286A40F004002862EEE700BFFB
:100E6000FFF7AEFCA0EB0A0159455AD8286A800763
:100E7000F6D50CE0FFF7A4FC824605E0FFF7A0FCE6
:100E8000A0EB0A0159454CD8286A8007F6D41FB157
:100E9000E86920F08050E861E06988B36968C1F3CF
:100EA0008101022945D00228C6F8608004D0FFF7EE
:100EB00087FC044638E034E0FFF782FC074604E094
:100EC000FFF77EFCC01B02282BD828688001F7D4CE
:100ED000206AB0F5803F05D16868A16820F4003031
:100EE00008436860D4E908010843696821F4741173
:100EF00008436860C6F86090FFF762FC044606E0AD
:100F000015E000BFFFF75CFC001B022809D8286829
:100F10008001F7D50BE000BFFFF752FC001B022851
:100F200002D90320BDE8F88F28688001F4D400209E
:100F3000F8E70120F6E700000010024000004242FE
:100F4000800442420C000020007000404FF0E0217D
:100F50000428086903D020F004000861704740F0BD
:100F60000400FAE7704710B5401EB0F1807F01D34E
:100F7000012010BD4FF0E02460610F21601700F0E8
:100F80008BF90020A06107202061002010BD10B562
:100F9000FFF7E8FF10BD10B504000ED0242084F840
:100FA0003900204600F0C6F80020E06384F83900DC
:100FB00084F83A0084F8380010BD012010BD704755
:100FC00070B5026804461068D168536910F00F0FBD
:100FD00050D003F0010501F4907635435DD0C2078F
:100FE00005D0CA0503D5E26B42F00102E263420775
:100FF00005D5DA0703D0E26B42F00202E263820712
:1010000005D5DA0703D0E26B42F00402E26302077F
:1010100005D5DA0703D0E26B42F00802E263E26B27
:10102000002A33D0800604D5880602D5204600F079
:10103000B3F920684069E16BC0F38010090700D460
:1010400028B3204600F09AF92068416949061AD56C
:10105000416921F040014161606BA0B11B494163CE
:10106000606BFFF737F9002810D0606B416BBDE86B
:1010700070400847830610D58B060ED52046BDE884
:10108000704000F089B92046FFF799FF70BD2046F7
:10109000FFF795FF0020E06370BD030606D50B0641
:1010A00004D52046BDE8704000F07ABA4006F3D57A
:1010B0004806F1D5D168204621F04001D1602021B9
:1010C00084F8391000F0E4F870BD00006D130008DA
:1010D00070B5040004D094F83900002510B106E082
:1010E000012070BD84F83850204600F03FF82420DD
:1010F00084F839002068C16821F40051C16020469D
:1011000000F096F92068016921F49041016120689E
:10111000416921F02A0141612068C16841F4005110
:10112000C160E563202084F8390084F83A0000208B
:1011300070BD000010B50068094988420ED1094809
:10114000816921F4804181614FF4C0610648FFF755
:10115000E1F9BDE810402520FFF7BCBB10BD000041
:1011600000380140001002400008014010B500683E
:10117000154986B0884225D11448816941F48041DF
:1011800081618069124C00F4804004904FF400703B
:101190000090022001900320039069462046FFF74B
:1011A0002BFA00212015CDE9000102916946204665
:1011B000FFF722FA002211462520FFF7A1FB252088
:1011C000FFF793FB06B010BD00380140001002404D
:1011D0000008014070472DE9F843044690F83900B3
:1011E0001F4616460D46202850D1A5B19EB194F851
:1011F000380001284AD0012084F838004FF0000858
:10120000C4F83C80212084F83900FFF7D9FAA6847D
:101210008146E68426E00120BDE8F883E08C401E8C
:10122000E084A0684B46B0F5805F4FF000024FF0BD
:1012300080012046009703D000F0E3F9E8B90DE003
:1012400000F0DFF9C8B928882168C0F308004860B9
:10125000206908B16D1C05E0AD1C03E0216815F89C
:10126000010B4860E08C0028D8D14B460022402179
:101270002046009700F0C5F908B10320CCE72020F4
:1012800084F8390084F838800020C5E70220C3E7DD
:101290007047FEE7FEE770470907090E002806DAE7
:1012A00000F00F0000F1E02080F8141D704700F1FD
:1012B000E02080F8001470477047704710B5FFF7C2
:1012C00085FABDE81040FFF762BE10B590B002206D
:1012D0000090012004901020002405900794684697
:1012E000FFF7B2FC00B1FEE70F20CDE90A040C9431
:1012F0000D9400210AA80E94FFF734FB00B1FEE71D
:10130000FFF746FC4FF47A71B0FBF1F0FFF72BFECC
:101310000420FFF71BFE00221146501EFFF7F0FAD3
:1013200010B010BD0D48016841F001010160416835
:101330000B4A1140416001680A4A1140016001688E
:1013400021F480210160416821F4FE0141604FF4E5
:101350001F0181600449C00308607047001002400B
:101360000000FFF8FFFFF6FE08ED00E010B5406A50
:101370000021C185C184FFF722FE10BD0168CA6843
:1013800022F49072CA6001684A6922F001024A613F
:10139000202180F83A10704710B590F83A102229B1
:1013A00001D0022010BD8168B1F5805F11D00169C4
:1013B000002901681FD0496801F07F03816A4A1C37
:1013C00082620B70C18D491E0904090CC18518D0B9
:1013D0002BE00269816A002A0268526805D0D2B205
:1013E0000A80816A491C8162ECE7C2F308020A8024
:1013F000816A891CF7E74A68816A4B1C83620A701C
:10140000E0E70168CA6822F02002CA600168CA6881
:1014100022F48072CA6001684A6922F001024A61BE
:10142000202180F83A10FFF7D5FE002010BD000003
:101430002DE9F041044600680169E26821F4405159
:10144000114301612169A06808436169084321686B
:10145000CA6841F20C639A430243CA60206841693A
:10146000A26921F44071114341614C49206864250F
:10147000322688423CD1FFF7A1FB00EBC00101EB13
:10148000001061688900B0FBF1F7FFF797FB00EBF4
:10149000C00101EB00106168B0468900B0FBF1F0BB
:1014A000B0FBF5F06FF01801484307EB800106EB45
:1014B0000110B0FBF5F000F0F006FFF77FFB00EB4A
:1014C000C00101EB001061688900B0FBF1F0B0FBD6
:1014D000F5F006EB0016FFF771FB00EBC00101EB26
:1014E000001061688900B0FBF1F7FFF767FB3BE094
:1014F000FFF754FB00EBC00101EB001061688900AD
:10150000B0FBF1F7FFF74AFB00EBC00101EB001065
:101510006168B0468900B0FBF1F0B0FBF5F06FF008
:101520001801484307EB800106EB0110B0FBF5F012
:1015300000F0F006FFF732FB00EBC00101EB0010FA
:1015400061688900B0FBF1F0B0FBF5F006EB001626
:10155000FFF724FB00EBC00101EB0010616889007C
:10156000B0FBF1F7FFF71AFB00EBC00101EB001035
:1015700061688900B0FBF1F0B0FBF5F06FF0180185
:10158000484307EB800108EB0110B0FBF5F0216840
:1015900000F00F0030448860BDE8F0810038014061
:1015A00090F83910212901D0022070478168B1F5E7
:1015B000805F016A0BD04A1C0262026809785160A0
:1015C000C18C491E0904090CC1840ED017E009889A
:1015D0000268C1F30801516001690029016A02D063
:1015E000491C0162ECE7891CFBE70168CA6822F02C
:1015F0008002CA600068C16841F04001C1600020FB
:1016000070472DE9F041984617460E460446069D60
:101610001DE0681C1BD02DB1FFF7D2F8A0EB08002D
:10162000A84214D92068C16821F4D071C160206833
:10163000416921F001014161202084F8390084F8DA
:101640003A00002084F838000320BDE8F0812068CB
:10165000006836EA000004D00020B842D9D000204B
:10166000F3E70120F9E700000148FFF7A9BC0000FB
:1016700010000020FEE702E008C8121F08C1002A7F
:10168000FAD170477047002001E001C1121F002A03
:10169000FBD170478AB0FFF7A1F8FFF716FE464866
:1016A0004FF47A7500240068B0FBF5F0401EB0F1ED
:1016B000807F09D24FF0E0214861404AF02082F853
:1016C000140D8C61072008613D48816941F00801D3
:1016D0008161816901F008010991816941F004018A
:1016E00081618069374F00F004004FF48056099003
:1016F000002231463846FFF75DF8009601260220A9
:10170000CDE90160039069463846FEF775FF2F4921
:101710002D4808604FF4E130C1E901040C20CC6091
:10172000C1E904408C610846CC61FFF7D1FC00B1EF
:10173000FEE7002726A1254800F09CF82846FEF782
:1017400025FE38467F1C0328F4DB26A11F4800F045
:1017500091F8FEF7CBFE294D286801280ED028A16C
:101760001A4800F087F8CDE90656089404942C46F0
:1017700008A904A8FEF71CFE10B10CE027A1EFE7B2
:101780000022134621460220FEF770FE18B92BA155
:101790000E4800F06FF8FEF75FFE40F6B830FEF737
:1017A000F5FD2DA1094800F065F8FEF7E5FC2EA136
:1017B000064800F05FF8FAE70C0000200FE000E0B8
:1017C00000100240000C01400038014010000020D1
:1017D000092E2E2E2077616974696E67202E2E2EB9
:1017E0000A0D00000A0D095B20454E44204F46209B
:1017F00057414954205D0A0D0000000000FC00081C
:101800000A0D095B20424144203A20424F4F5420A8
:10181000544F204657205D0A0D0000000A0D095B59
:1018200020474F4F44203A205245575249544520B3
:10183000464C415348205D0A0D000000095B2055CD
:101840005047524144452076616C7565207265733E
:101850006574205D0A0A0D00095B205245424F4F16
:1018600054205D0A0D0000005B696E206C6F6F7084
:101870005D00000070B505460C460846FEF762FCA8
:1018800082B221462846BDE870400A23FFF7A3BC78
:101890000000000000000000010203040607080920
:1018A0000000000001020304C81800080000002026
:1018B0001000000076160008D8180008100000205C
:1018C00060040000861600080100000010000000FF
:0818D0000000000000A24A0420
:04000005080000ED02
:00000001FF
